:1050000000000110F95100000D5100001151000085
:1050100015510000195100001D5100009E18FDEFB0
:10502000000000000000000000000000215100000E
:105030002551000000000000295100002D51000002
:105040003151000031510000315100003151000058
:10505000315100002556000031510000315100004F
:105060003151000031510000315100003151000038
:105070003151000031510000315100003151000028
:105080003151000031510000315100003151000018
:105090003151000031510000315100003151000008
:1050A00031510000315100003151000031510000F8
:1050B00031510000315100003151000031510000E8
:1050C00031510000315100003151000031510000D8
:1050D00031510000315100003151000031510000C8
:1050E00031510000DC6F000000000010780000006B
:1050F0007800001000000020000000007800001080
:10510000A80200000000002000000000FEE700BF31
:10511000FEE700BFFEE700BFFEE700BFFEE700BFFF
:10512000FEE700BFFEE700BFFEE700BFFEE700BFEF
:10513000FEE700BF5AB110B404390023043350F81D
:10514000044B41F8044F9A42F8D85DF8044B70477D
:1051500049B110B40346002443F8044B1A1A914293
:10516000FAD85DF8044B704770B51E4C1E4EB44221
:1051700011D294E806000C3454F8045C002DF6D0EB
:10518000043A0023043351F8040B42F8040F9D4203
:10519000F8D8B442EDD3154B9C4214D204F1080662
:1051A00007339B1B23F0070310331C44002516E92B
:1051B0000300034621B143F8045B1A1A9142FAD85E
:1051C0000836A642F3D1DFF84000016841F47001CF
:1051D0000160074B074A1A6001F066F800F016F804
:1051E000FEE700BFE4500000FC5000000C5100003E
:1051F00008ED00E00050000008B5024B83F308887A
:10520000FFF7B2FF0000011088ED00E0F0B5AFB08D
:1052100000F004FB00F0FAF800F016F9022101207A
:1052200000F04AFC02200146614C00F045FC9DF86C
:10523000683060491C9100250821264661F3071358
:105240005D4AADF86A5028464FF4805E17A940F2D7
:1052500023178DF86830ADF85EE01B971D9200F0C3
:1052600031FD06F8045B2546002017A900F0AEF8D2
:10527000C8B9637883F0010301206370002B4AD022
:10528000032100F019FC1D9BB3F5CA6F4AD040F210
:105290001162934203D1BDF87200002864D001204E
:1052A00017A900F00FFD012017A900F08FF868B9C9
:1052B000A37883F001030220A370002B45D00321C3
:1052C00000F0FAFB002017A900F0FCFC2178C1F1E6
:1052D0001E020DF10703D2B23144002000F04EF956
:1052E00003460028C0D129786F183A790A2ABBD022
:1052F0000D2A2ED09DF8073019442970002017A9D7
:1053000000F064F80028CED1637883F00103012017
:105310006370002BB4D1022100F0CEFB1D9BB3F5CE
:10532000CA6FB4D1BDF87230022BB8D1BDF8783055
:10533000224AC3F30E0302A81E2101F02BF802A992
:10534000C2B2002000F0C4F8ADE7014600F0B4FBA3
:10535000B8E71B481B493B71052201F04DF8074691
:1053600048B1002323707FE79DF870201EA9120921
:1053700000F0AEF897E79DF814301348ADF81670BA
:10538000042262F307134FF4805C4FF48A6E3946AF
:105390000A228DF81430ADF80AC0CDF818E001F0FB
:1053A000C1F802A90790384600F08CFCD9E700BF8D
:1053B000780000100123456789ABCDEF106E000027
:1053C0007C0000101C6E00008100001038B50546FE
:1053D0000C4600F023FD38B96388012B05D0032B60
:1053E00002D1237B1B0601D4012038BD284600F0E2
:1053F00089FD054B05EB850103EB8101284600F093
:1054000095FD012038BD00BF246E000010B50D4C85
:105410000020214600F08AFD0020024640F2FF7382
:10542000014600F0E7FB04F11401012000F07EFDCD
:1054300000210A46012040F2FF73BDE8104000F051
:10544000D9BB00BF246E0000F0B50F4B87B000221F
:10545000029340F20D3E28331046082701262825E6
:105460003C2401A903938DF81220CDF804E08DF8B7
:1054700010708DF811608DF813508DF8144000F005
:1054800067F907B0F0BD00BF9C000010002010704D
:10549000704700BF184670470020704700207047D3
:1054A0004FF4005353600020704700BF0120704745
:1054B000FEE700BF044B054A1868002808BF1046E5
:1054C00001441960704700BF000100102003001064
:1054D00030B901B14AB9264B202206201A60704724
:1054E000234B202201201A607047F0B4214C23780E
:1054F0009A4205D904201E4B20221A60F0BC704746
:105500001B4B2020C3F88000BFF34F8FBFF36F8F7A
:1055100023786678B34217D0013A6768237A51FA44
:1055200082F00139227811F8015FFD540133013A0C
:10553000DBB2D2B29E4298BF0023814222700D4A54
:10554000F0D113720020D6E70B48037D9F0606D4E6
:10555000E2E711F8012B027013F0FF02F2D0057D93
:10556000AD0602F1FF33F4D4002AD5D1EAE700BF3B
:1055700000E100E00401001000C000402DE9F0410E
:1055800018B959B16AB9062001E000220120234967
:1055900020240C6003B11A70BDE8F0810A46062091
:1055A000F5E71F4D6C7AAE7AB4420FD01B4C202722
:1055B000C4F88070BFF34F8FBFF36F8FEC7A44B1A4
:1055C000EA7A0A70E87201220320E0E7024602202C
:1055D000DDE7013AD2B20132D5F80CE0287C01EBCC
:1055E000020C0F4601E0674513D06C7A1EF80020CC
:1055F00007F8012B0134E4B26C726C7ADFF820807A
:105600000130C0B27A1A864298BF0020A642D2B2B8
:10561000E9D888F810000020B9E700BF00E100E0F9
:1056200004010010274A9368D9074AD42DE9F041B4
:1056300025494D784F68487CD1F80CC08C7C91F896
:105640000AE00E4605E0022B20D0936813F0010F0C
:1056500018D1C3F34203012BF5D10B78AB42F4D23E
:10566000137D9B06F1D53B5C13700B780133DBB2E5
:105670000B7001309368C0B2854298BF002013F0D0
:10568000010FE6D048748C74BDE8F081137DDB0710
:10569000DBD54B7A3BB9F37AFF2BD6D0F37A0133C3
:1056A000DBB2F372D1E792F800804B7A0CF80480F9
:1056B000013B0134E4B2DBB2744528BF00244B72D5
:1056C000C3E7704700C0004004010010A8B90C49AE
:1056D00070B42024C1F88040BFF34F8FBFF36F8FA9
:1056E000084D094B2A7A5E78187242F004022A7239
:1056F00058741E700C6070BC70470120704700BF6A
:1057000000E100E000C00040040100100346B8B909
:1057100070B40C4C2025C4F88050BFF34F8FBFF3FA
:105720006F8F0948094A017A967A937441F0020111
:10573000017256721374D3721846256070BC70479C
:105740000120704700E100E000C0004004010010AB
:105750002E4B2022C3F88020BFF34F8FBFF36F8FF3
:1057600088B90B680BB9052070474A68002AFAD03F
:10577000F0B48D6825B1264CCE7B6260E56026B919
:105780000520F0BC7047012070470A7C002AF7D042
:105790000D7B2670053D62726670A2722072607485
:1057A000A0742074E072032DEAD8DFE805F0022A25
:1057B000282600204A7B012A03D0022AE0D140F0AB
:1057C00004008A7B012A1ED003D3022AD8D140F0DC
:1057D0000800104A0D49C0B28024DFB20326C3F38B
:1057E0000723072514731770202413711073566054
:1057F000157293680C600020C3E70320DAE70220EB
:10580000D8E70120D6E740F01800E2E700E100E029
:105810000401001000C00040704700BF2DE9F84FA0
:10582000804E814A814BDFF8149281488149DFF82C
:1058300010E2DFF810C2804F4FF040254FF0FF3BE1
:10584000C6F880B00024C6F884B04FF002080126E4
:105850004FF0770A4FF00F0BC5F80480C5F80CA085
:10586000AC606C61EC636E60C2F81CB0D2F800B042
:105870004FF0B00A4BF00F0BC2F800B0C3F88040F5
:105880004FF0300BC3F88440C3F88840C3F88C4015
:10589000C3F894A0C3F898A0C3F89CA04FF4406A42
:1058A000C3F8B4B0C2F818A0D2F800A04AF4406A15
:1058B000C2F800A04FF0110B20224FF0A00AC3F84D
:1058C000A840C3F8AC40C3F808B0C3F80CB0C3F8A4
:1058D000B8A0C3F8C820C3F8E820C9F81C60D9F8FC
:1058E00000A040F201124AEA060A4FF4017BC9F80F
:1058F00000A0C3F8004140F2052AC0F8C82140F2D8
:105900000D29C3F8ECB040F2152240F23F1BC3F85A
:105910001CA1C3F858909A645A64DA631A64CEF8EA
:1059200014B0CEF810C00C60D0F8DC2122F4F812CC
:10593000C0F8DC21D0F8DCE140F201224EF4B01EC8
:10594000C0F8DCE1C3F80022C3F80422C3F808223F
:10595000C3F80C22C3F81022C3F81422C3F8802124
:10596000C3F88421C3F88821C3F88C21C3F890219F
:10597000C3F89421C3F89821C3F89C21C3F8A0214F
:10598000C3F8A421C3F8A821C3F8AC21C3F8B021FF
:10599000C3F8B421C3F8B821C3F8BC21C3F860220E
:1059A000C3F86422C3F87822C3F84821D0F8A021B4
:1059B0004FF0810E4FF4806942F00402C0F8A0213C
:1059C000C1F800E2C1F81042C1F80442C1F8144223
:1059D000C1F80842C1F80C82C1F818620E60C7F81D
:1059E00018903A6842EA09023A6005209C6200F089
:1059F00037FBC7F81C90052000F032FB4FF4FA701B
:105A0000C7F8189000F02CFB4FF00043C5F8048055
:105A10005E80AC60A3F802806E60FFF7FDFE20465A
:105A2000BDE8F88F00E100E02080092000C00240BE
:105A300000C00F4000C009200080092040800920DC
:105A4000800020000206040050B1064B5A69C2F3E0
:105A50004213920448BF43F00803037000207047CC
:105A6000012070472080092088B10A4B5A69C2F38F
:105A70008033510344BF43F00203DBB2520148BFFD
:105A800043F0040383F00703036000207047012004
:105A9000704700BF2080092050B10068054B10F00E
:105AA00001004FF001021ABF00209A61DA617047CD
:105AB0000120704740800920012809D0022805D123
:105AC00003293BD8DFE801F0352E2722022070475A
:105AD000032933D8DFE801F0150E0702184B032223
:105AE0009A6100207047164B02210122D9610020E3
:105AF0009A617047124B01210222D96100209A61FC
:105B000070470F4B0322DA61002070470C4B0C22C8
:105B10009A61002070470A4B08210422D9610020B5
:105B20009A617047064B04210822D96100209A61CE
:105B30007047034B0C22DA61002070470120704748
:105B400020800920DFF89CC0DFF89C90DFF89C8063
:105B50001F4E204D0446BCE80F0080B51E4FDFF8F5
:105B600090E04FF4806AC9F81CA00FC7DCF8003041
:105B70003B7000233360736008F1080848F8083C64
:105B800048F8043CC8F800300EF1080E2B606B603A
:105B90004EF8083C4EF8043CCEF800305CB1274685
:105BA0000FCF0FC63B68C8F8003014340FCC0FC5B8
:105BB0002368CEF80030BFF34F8F0849084BCA68FE
:105BC00002F4E0621343CB60BFF34F8FFEE700BFE8
:105BD000A07F0020C07F0020807F002000ED00E03B
:105BE0000400FA054C6E000000800920A87F002008
:105BF000C87F0020012801D9042070479A42FBD8B1
:105C0000B3F5006FF8D22E49F0B54FEA801C4FF083
:105C1000010E02F01F040EFA04F7540765460CEB60
:105C2000521645D051F8264001323C43934241F888
:105C30002640EED2D41DA34227D34FF0FF0C05EB34
:105C4000521702F01F0651F8274002F10F0E0CFA0E
:105C500006F62643734502F1080441F82760224600
:105C6000EDD2A34211D3013385014FF0010E05EBB4
:105C7000541604F01F0751F826200EFA07F70134D6
:105C80003A439C4241F82620F1D101EB0022000169
:105C9000043A00F1004400231D0652F8041F0133AA
:105CA00045F00600402BC4E90A01F5D10020F0BD03
:105CB000D41DA34201D38501BFE71446D1E700BF3D
:105CC00018010010012801D9042070470029FBD0D9
:105CD000030103F1004320335B88DB0701D402207A
:105CE00070474A88042303EB0010012A00F10040AA
:105CF00004D0B2F5805F60D003207047CA8A12F0EA
:105D0000010F58D1D3066AD50B7D424A1B0932F8E0
:105D10001320131F9B0842F0805202620C31013B9A
:105D2000132B74D8DFE803F043403D3A3734312E6B
:105D30002B2825221F1C191613100D0A0B6803624D
:105D400004310B68036204310B68036204310B6891
:105D5000036204310B68036204310B68036204318F
:105D60000B68036204310B68036204310B68036241
:105D700004310B68036204310B68036204310B6861
:105D8000036204310B68036204310B68036204315F
:105D90000B68036204310B68036204310B68036211
:105DA00004310B68036204310B68036204310B6831
:105DB000036200207047184AAFE7CA8912F0010F4A
:105DC00018D1D30618D50B7B124A1B0932F81320C1
:105DD000131F9B0842F08052026204319FE70A7D44
:105DE0000C4B120903EB42031A8C131F9B0842F061
:105DF000805292E7084AEFE70A7B064B120903EB51
:105E000042031A8C131F9B0842F08052E4E70020E3
:105E1000704700BF606E000014000010012801D917
:105E2000042070470029FBD0030103F10043203315
:105E30005B88DB0560D5000100F1004004300B46B3
:105E4000026A00B543F8042B92B2043A9208013A70
:105E5000152A53D8DFE802F04B4845423F3C39361B
:105E600033302D2A2724211E1B1815120F0B036A0D
:105E70004B6001F10803026A1A600433026A1A6077
:105E80000433026A1A600433026A1A600433026A35
:105E90001A600433026A1A600433026A1A60043317
:105EA000026A1A600433026A1A600433026A1A60D2
:105EB0000433026A1A600433026A1A600433026A05
:105EC0001A600433026A1A600433026A1A600433E7
:105ED000026A1A600433026A1A600433026A1A60A2
:105EE0000433026A1A600433026A1A600433026AD5
:105EF0001A6000205DF804FB0120704700205DF867
:105F000004FB00BF012801D90420704738B5030302
:105F1000000143F00104002500F10040C0E90A45FA
:105F2000502000F09DF8284638BD00BF012801D957
:105F3000042070470029FBD0030103F100432DE941
:105F4000F0434FF420624FF410654FF4A0641D84B9
:105F50001C841A840A683A4E070347F0010400259E
:105F6000B2424FEA0010C3E90A4559D0354CA2426B
:105F700059D0354CA2420BD0344CA24256D0344CAE
:105F8000A24256D0334CA24256D00520BDE8F08341
:105F900091221A848B7ACA884C7AB1F8048091F8DD
:105FA00008C0CD892C4F2D4E013B013A4FEA034EDC
:105FB000631E140208F1FF324EEA036344EA024210
:105FC0000CF1FF3C00F1004042EA0C0943F00408E8
:105FD000C0E90A890B7C8C7C91F811E0013B1A0224
:105FE000013C6B1E42EA034324060EF1FF3E44F0DF
:105FF000050843EA0E09C0E90A890B7B0025002B3E
:106000000CBF3C463446C0E90A45CB7AAB420CBFD4
:10601000022203222B46C0E90A232846BDE8F0836A
:10602000C2221A84B6E781221A84B3E7A1221A8415
:10603000B0E7B1221A84ADE7C1221A84AAE700BFF3
:1060400000B4C40400879303005A620280C3C901EC
:1060500000366E01002D31010C0004000B0004001D
:1060600058B14FF0402319469A688B689A4288BF0E
:1060700003F1FF339B1A8342F7D37047744BD3F875
:106080000421D00530B441D4D3F80C21D10759D420
:10609000D3F8042112F01F0206D0D3F804216D4B6F
:1060A00002F01F02B3FBF2F26B4B69481A60D0F8A2
:1060B000A81111F01F0106D0D0F8A811654801F011
:1060C0001F01B0FBF1F162485960D0F8001101F0F6
:1060D00001010131B2FBF1F29A605D4AD2F8081178
:1060E000C80521D4D2F8081111F4007163D0D2F898
:1060F0000C11C90740F18D80D2F8A810554A01F063
:106100001F0101FB0222DA6030BC7047D3F88820FF
:10611000D50521D4504B00221A605A609A604C4A2F
:10612000D2F80811C805DDD5D2F8082102F01F0207
:10613000042A78D0062A76D0002AE4D00022DA6039
:1061400030BC7047D3F8A0215206E3D5D3F8042120
:1061500012F01F02A8D0A0E7D3F80C2112F0010022
:106160002CD1D3F88840D3F80411D3F8A851D3F830
:10617000002111F01F0104F01F0303F1010418BFF7
:10618000344B02F001021CBF6343B3FBF1F1324B0D
:1061900002F1010208BF014605F01F05D2B21960E5
:1061A00025B12C4800FB04F0B0FBF5F0B1FBF2F296
:1061B00058609A60B3E7D96030BC7047D3F8A0212B
:1061C0005406A7D5D3F88840D3F80421D3F8A80102
:1061D000D3F8001101F0010104F01F04013112F0A5
:1061E0001F0204F10104C9B200F01F0004D0194BD2
:1061F00003FB04F3B3FBF2F2174B1A6020B1154D09
:1062000005FB04F4B4FBF0F0B2FBF1F258609A60C5
:1062100085E7D2F888100F4A01F01F0101FB022226
:10622000DA6030BC70470A48D0F88820D0F80811EE
:10623000D0F80C01074802F01F02013201F01F01E3
:1062400000FB02F230BCB2FBF1F1D960704700BF35
:1062500000C00F40001BB700000000100D4A0E4B9D
:10626000126884B001921B680293019A0B4B9A4208
:1062700001D004B07047029A094B9A42F9D1094AF9
:1062800013680393039B43F470030393039B13600E
:10629000EFE700BF40EF00E044EF00E02100111005
:1062A0001100001188ED00E038B5FFF7D7FF204955
:1062B0003123C1F8A031D1F8A0311D4A5806FAD5D2
:1062C00001230425AA245520C2F80C311146C2F836
:1062D0008450C2F88030C2F88C40C2F88C00D1F8EB
:1062E0008830134A5B05FAD540F20111C2F8041157
:1062F000012340F2012540F2031400210D48C2F8A9
:106300000851C2F80031C2F8B441C2F8A831C2F84D
:10631000C400C2F8C811D2F8B03145F23A0143F0D6
:106320000303C2F8B0311160BDE83840FFF7A6BEE4
:1063300000C00F409EAEF90708B430B5141E9CB0E3
:10634000054604DA8B2303604FF0FF301DE04FF465
:106350000273ADF8143014BF04F1FF3323460493E5
:1063600007934FF6FF7302910691ADF8163002A91C
:1063700020AB1F9A019300F0BBF9431CBCBF8B23D9
:106380002B6014B1029B00221A701CB0BDE8304093
:1063900001B070470CB430B5164B0C1E9DB01D6893
:1063A00004DA8B232B604FF0FF301EE04FF40273B2
:1063B000ADF8143014BF04F1FF3323460493079360
:1063C0004FF6FF7302900690ADF81630284621ABC9
:1063D00002A9209A019300F08BF9431CBCBF8B23C8
:1063E0002B6014B1029B00221A701DB0BDE8304032
:1063F00002B070477400001070B5AAB1451E013993
:106400006B7811F8014FA34205F1010606D16FF038
:106410000104641B1444E04202D11C46181B70BDE9
:106420003546002BECD1F8E7104670BD2DE9F0475A
:106430003B4CD4F800900E46354615F801EB09EBBD
:106440000E04677807F0080404F0FF070CB12E462D
:10645000F2E774462D2C03D1B51C7478012703E0B4
:106460002B2C04BF7478B51C13B1102B0AD151E04A
:10647000302C4DD12C7804F0DF04582C43D16C78AB
:10648000102302354FF0FF380026B8FBF3F803FB6A
:1064900008FA6FEA0A0AB64609EB040C9CF801C038
:1064A0001CF0040F01D0303C0BE01CF0030C1BD09F
:1064B000BCF1010F0CBF4FF0370C4FF0570CCCEB79
:1064C00004049C4210DAB6F1FF3F0AD0C64506D854
:1064D00001D1544503DC03FB0E4E012601E04FF0D1
:1064E000FF3615F8014BD7E7741C734603D12223FE
:1064F0000360334602E00FB1CEF100036AB106B18A
:10650000691E116009E03024002BBBD10823B9E7D4
:106510000A23B7E7302CB5D1ACE71846BDE8F087C1
:106520001000001030B51346044A05460C461068AA
:1065300029462246BDE83040FFF778BF74000010BE
:106540002DE9F0478E68B34282460C469046994644
:1065500040D38A8912F4906F3AD0256809696F1A7E
:106560006569022305EB450595FBF3F57B1C4B4460
:106570009D4238BF1D4653050FD5294600F0BAFB92
:10658000064698B121693A4600F049FBA38923F4F5
:10659000906343F08003A38113E02A4600F000FCDF
:1065A000064670B95046216900F060FB0C23CAF81A
:1065B0000030A38943F04003A3814FF0FF30BDE8D2
:1065C000F087266165613E44ED1B2660A5604E465E
:1065D000B14500D24E4632462068414600F02AFBC3
:1065E000A3689B1BA36023681E4426600020BDE8AF
:1065F000F0872DE9F74F9346D2F800A092688146C4
:106600000C463AB3002301931F4606E0DAF8003047
:10661000DAF8047001930AF1080A002FF6D0A66890
:10662000B74260D3A08910F4906F17D1B7425AD304
:1066300032462068019900F0FDFAA268921BA26020
:1066400022681644DBF808202660D71BCBF80870B8
:10665000002FDBD10020CBF8040046E0256821693B
:10666000C1EB05086569022205EB450595FBF2F5CE
:1066700008F101023A44954238BF154610F4806F84
:1066800048460FD0294600F035FB064698B14246F1
:10669000216900F0C4FAA28922F4906242F08002DB
:1066A000A28117E02A4600F07BFB064690B94846D7
:1066B000216900F0DBFA0C22C9F80020A28942F01F
:1066C0004002A2810022CBF80820CBF804204FF032
:1066D000FF300AE0266165614644C8EB0505266087
:1066E000A5603E46A2E73E46A2E703B0BDE8F08FB4
:1066F0002DE9F0439DB0064603938B891C060D4699
:1067000090460CD50B6953B9402100F0F3FA28608C
:10671000286110B90C233360CCE040236B61002367
:10672000099320238DF8293030238DF82A304346F1
:106730001C4613F8012B1AB9B4EB08090FD002E07C
:10674000252AF5D1F8E73046294642464B46FFF761
:10675000F7FE013000F0A980099B4B440993237890
:10676000002B00F0A28000234FF0FF320493079328
:10677000059206938DF853301A9304F101084446AC
:10678000DFF8489121784846052200F039FA08F1EF
:106790000108049B30B1C9EB000001228240134381
:1067A0000493ECE7D80644BF20228DF85320190744
:1067B00044BF2B228DF8532022782A2A02D0079931
:1067C00023460EE0039A111D12680391002ABBBFF5
:1067D000524243F0020307920792B8BF0493013478
:1067E0000AE01C4601332278303A092A03D80A20ED
:1067F00000FB0121F5E7079123782E2B1AD163784E
:106800002A2B0AD1039B1A1D1B680392002BB8BFC9
:106810004FF0FF33023405930CE0611C00220C465C
:1068200001312378303B092B03D80A2000FB0232C8
:10683000F5E70592DFF8988021784046032200F0C2
:10684000DFF938B1049AC8EB0000402383401343BA
:106850000493013421781A488DF82810062204F197
:10686000010800F0CDF988B1164B33B9039B07330B
:1068700023F007030833039313E003AB0093304680
:1068800004A92A46104BAFF3008007E003AB009346
:10689000304604A92A460C4B00F092F8421C0746E9
:1068A00003D0099B3B44099341E7AB895B0601D4C4
:1068B000099801E04FF0FF301DB0BDE8F08300BF44
:1068C000B26F00000000000041650000A86F0000EA
:1068D000AE6F00002DE9F84391461F468A680B69A8
:1068E000DDF820809342B8BF1346C9F8003091F814
:1068F000432006460C4612B10133C9F80030236824
:10690000990642BFD9F800300233C9F80030256833
:1069100015F006051CD094F843302268003318BFE8
:10692000012392061FD5E1185A1C302081F843003C
:10693000224494F8451082F84310023313E03046A5
:10694000394604F119020123C047013007D001354F
:10695000E368D9F800209B1A9D42F0DBDBE74FF09B
:10696000FF30BDE8F8833046394604F14302C047A2
:106970000130F4D02268D9F80050E36802F0060232
:10698000042A08BF5D1B2269A3680CBF25EAE575D0
:1069900000259342C4BF9B1AED184FF00009A9458A
:1069A0000ADA3046394604F11A020123C0470130A1
:1069B000D5D009F10109F2E70020BDE8F883000015
:1069C0002DE9FF410C461746227E6E2A9846064660
:1069D0000A9B01F1430100F0AF8012D8632A23D053
:1069E0000AD8002A00F0BC80582A40F0CB8084F8F6
:1069F0004520DFF804E257E0642A1ED0692A1CD043
:106A0000C0E0732A00F0B08009D86F2A2ED0702A17
:106A100040F0B880226842F0200222603FE0752AF0
:106A200024D0782A3BD0ADE01A68111D1960136894
:106A300084F8423004F14205A8E020681A6810F09A
:106A4000800F02D0101D186008E010F0400F02F116
:106A50000400186002D0B2F9003000E01368002B87
:106A60003EDA2D225B4284F8432039E020681A6820
:106A700010F0800F02D0101D186007E010F0400FDA
:106A800002F10400186001D0138800E01368227E30
:106A9000DFF864E16F2A0CBF08220A221CE078228A
:106AA000DFF858E184F845202268186812F0800F5A
:106AB00000F104051D6003D1550601D5038800E0EF
:106AC0000368D00744BF42F0200222601BB922684D
:106AD00022F0200222601022002084F8430002E00D
:106AE000DFF814E10A226568A560002DA2BF2068C6
:106AF00020F00400206003B965B10D46B3FBF2F04D
:106B000002FB10331EF8033005F8013D0346002850
:106B1000F4D100E00D46082A0BD12368DA0708D526
:106B2000236962689A42DEBF302305F8013C05F113
:106B3000FF35491B21612EE025681A68606915F050
:106B4000800F03D0151D1D60136808E015F0400F7D
:106B500002F104051D60136801D0188000E0186080
:106B6000002323610D4616E01A68111D196015688F
:106B700062682846002100F043F808B1401B6060BD
:106B8000636804E004F1420584F842200123236194
:106B9000002384F84330CDF800803046214603AA14
:106BA0003B46FFF797FE013002D14FF0FF301FE068
:106BB000304639462A462369C0470130F5D023685C
:106BC0009B0705D4E068039B9842B8BF18460FE0C6
:106BD0000025E368039A9B1A9D42F3DA3046394652
:106BE00004F119020123C0470130DED00135F0E77E
:106BF00004B0BDE8F08100BFB96F0000CA6F0000AB
:106C000010B5C9B202449042034606D01C788C42AB
:106C100000F10100F7D1184610BD002010BD10B5DD
:106C2000431E0A44914204D011F8014B03F8014F6E
:106C3000F8E710BD814210B501EB020301D3421EFB
:106C40000BE09842FBD28118D21AD34204D013F839
:106C5000014D01F8014DF8E710BD994204D011F83B
:106C6000014B02F8014FF8E710BD000030B50029D4
:106C70003DD051F8042C0B1F1D49002AB8BF9B18AA
:106C80000A680C4612B95A600B6030BD93420DD2AF
:106C900019685818904201BF5A5852181A60426831
:106CA0005A60236030BD994203D80A4651680029D2
:106CB000F9D1146815199D420AD11B682344D018D4
:106CC0008842136013D10868034413604B680DE0D9
:106CD00002D90C23036030BD1C681819884204BF18
:106CE00008684968596004BF00191860536030BDD6
:106CF0001C03001070B5CC1C24F0030408340C2CC9
:106D000038BF0C24002C064603DA0C233360002025
:106D100070BD8C42F9D3204A136810461946A1B1C0
:106D20000A68121B0ED40B2A03D90A608B188C50E8
:106D30001FE08B420DBF5A684A685A60026018BF54
:106D40000B4616E00B464968E9E7144D2B681BB962
:106D50003046FEF7AFFB286030462146FEF7AAFB1F
:106D6000421C0346D1D0C51C25F0030585420AD13B
:106D70001C6003F10B001A1D20F00700821A0AD0D4
:106D80005142995070BD3046E91AFEF793FB01302D
:106D9000BBD02B46ECE770BD1C030010180300109D
:106DA000F8B5074615460E4621B91146BDE8F8402C
:106DB000FFF7A0BF1AB9FFF759FF2846F8BD00F04A
:106DC00015F8A8420ED238462946FFF793FF04462D
:106DD00050B131462A46FFF722FF38463146FFF7C9
:106DE00045FF01E03046F8BD2046F8BD51F8040CDF
:106DF0000028BEBF091851F8043CC0180438704779
:106E00005043414E2D526F757465725F46440000C9
:106E100052504D203D2025640A0000006675656CC7
:106E20003D00000000B4C40401007F0020016000A8
:106E3000010001000F04010000B4C40401007F0040
:106E400020016000010001000F04010063616C6C0F
:106E500020626F6F746C6F616465722100000000C6
:106E6000140018001800180018001C001C001C005A
:106E70001C002000240028002C0034004400540092
:106E8000140018001800180018001C001C001C003A
:106E90001C001C001C001C001C001C001C001C0012
:106EA00000202020202020202020282828282820DA
:106EB00020202020202020202020202020202020D2
:106EC000208810101010101010101010101010103A
:106ED000100404040404040404040410101010102A
:106EE00010104141414141410101010101010101F4
:106EF0000101010101010101010101011010101046
:106F000010104242424242420202020202020202C5
:106F10000202020202020202020202021010101019
:106F20002000000000000000000000000000000041
:106F30000000000000000000000000000000000051
:106F40000000000000000000000000000000000041
:106F50000000000000000000000000000000000031
:106F60000000000000000000000000000000000021
:106F70000000000000000000000000000000000011
:106F80000000000000000000000000000000000001
:106F900000000000000000000000000000000000F1
:106FA0000043000014000010232D302B2000686CDB
:106FB0004C0065666745464700303132333435361C
:106FC0003738394142434445460030313233343555
:0C6FD0003637383961626364656600FF83
:106FDC00008793030087930380C3C901006CDC0214
:106FEC00A06E000000000000000000000000000087
:106FFC000000000000000000000000000000000085
:10700C0000000000A16F0000000000000000000064
:10701C000000000000000000000000000000000064
:10702C000000000000000000000000000000000054
:10703C000000000000000000000000000000000044
:08704C00000000001400001018
:04000003000051F9AF
:00000001FF
