:1050000000000110F95100000D5100001151000085
:1050100015510000195100001D5100009E18FDEFB0
:10502000000000000000000000000000215100000E
:105030002551000000000000295100002D51000002
:10CD0000F0080010F0080010F8080010F8080010F3
:10CD1000000900100009001008090010080900109F
:10CD2000100900101009001018090010180900104F
:10CD300020090010200900102809001028090010FF
:10CD4000300900103009001000000200FFFFFFFF53
:020000040003F7
:100000001000000000000000017A5200027C0E0186
:100010001B0C0D005800000018000000989B00F019
:10002000C802000000420E10840485034486028743
:100030000102540A42C6C748C4C5430B470A42C618
:10004000C748C4C5430B640AC6C748C4C5430B6947
:100050000A43C4430B640A42C4C5C6C7430B024AE1
:100060000A42C4C5C6C7410B52C4C5C6C70000007A
:0800700090BB007001000000CC
:04000003000051F9AF
:00000001FF
